:200000000C94FE000C940A010C940A010C940A010C940A010C940A010C940A010C940A0195
:200020000C940A010C940A010C940A010C940A010C940A010C940A010C940A010C940A0168
:200040000C940A010C940A010C940A010C940A010C940A010C940A010C940A010C940A0148
:200060000C940A010C940A010C940A010C940A010C940A010C940A010C940A010C940A0128
:200080000C940A010C940A010C940A010C940A010C940A010C940A010C940A010C940A0108
:2000A0000C940A010C940A010C940A010C940A010C940A010C940A010C940A010C940A01E8
:2000C0000C940A010C940A010C940A010C940A010C940A010C940A010C940A010C940A01C8
:2000E0000C940A010C940A010C940A010C940A010C940A010C940A010C940A010C940A01A8
:200100000C940A010C940A010C940A010C940A010C940A010C940A010C940A010C940A0187
:200120000C940A010C940A010C940A010C940A010C940A010C940A010C940A010C940A0167
:200140000C940A010C940A010C940A010C940A010C940A010C940A010C940A010C940A0147
:200160000C940A010C940A010C940A010C940A010C940A010C940A010C940A010C940A0127
:200180000C940A010C940A010C940A010C940A010C940A010C940A010C940A010C940A0107
:2001A0000C940A010C940A010C940A010C940A010C940A010C940A010C940A010C940A01E7
:2001C0000C940A010C940A010C940A010C940A010C940A010C940A010C940A010C940A01C7
:2001E0000C940A010C940A010C940A010C940A010C940A010C940A010C940A0111241FBE40
:20020000CFEFCDBFDFE5DEBF00E00CBF0E940C010C9426010C94000081E0809341068093A4
:2002200045062FE936E891E0215030409040E1F700C00000809346062FE936E891E021500C
:1002400030409040E1F700C00000E9CFF894FFCFC4
:00000001FF
